:1000000008F4FF1F59040000D1040000D1040000CF
:1000100000000000000000000000000000000000E0
:10002000000000000000000000000000D1040000FB
:100030000000000000000000D1040000C504000022
:10004000D1040000D1040000D1040000D10400005C
:1000500000000000D1040000D1040000D104000021
:10006000D1040000D1040000D1040000D10400003C
:10007000D1040000D1040000D1040000D10400002C
:10008000D1040000D1040000D1040000D10400001C
:10009000D1040000D1040000D104000000000000E1
:1000A000D1040000D1040000D1040000D1040000FC
:1000B000D104000000000000D1040000D1040000C1
:10040000FFFFFFFFFFFFFFFFFFFFFFFFFEFFFFFFFD
:1004100080B500AFBD4680BD80B582B000AF7860CA
:100420007A680B4B9A4201D901230CE0094B7A6898
:100430001202120A013A5A60064B00229A60054BDA
:1004400007221A600023181CBD4602B080BDC046BA
:10045000FFFFFF0010E000E080B582B000AF00F0C9
:1004600085F8124B7B60124B3B6007E03B681A1D1E
:100470003A607A68111D796012681A603A680D4B0B
:100480009A42F3D30C4B3B6004E03B681A1D3A6080
:1004900000221A603A68094B9A42F6D3084B181C9E
:1004A000FFF7BAFF00F058F8FEE7C046FC05000071
:1004B00000F0FF1F00F0FF1F00F0FF1F08F0FF1FFC
:1004C00080BB000080B500AF00F082F8BD4680BD63
:1004D00080B500AFFEE7C04680B500AF0E4A882366
:1004E0005B010021D1500C4A0B490C4BCB588021A9
:1004F000C9001943094BD150094B802252001A60A0
:10050000084B01229A60074B064A526901210A43AF
:100510005A61BD4680BDC0460070044038100000DE
:1005200000A0044040F00F4080B500AF00F05CF840
:10053000021C074B1B68D31AFA2B07D900F054F89A
:10054000021C034B1A60034B0122DA60BD4680BDDA
:1005500000F0FF1F40F00F4080B500AFFFF7BCFF79
:10056000FFF7E2FFFFF754FFFAE7C04680B500AFA0
:10057000124B124AD278D1B21F220A40D2B2602165
:1005800049420A43D2B2DA700D4A0D490D4BCB589D
:10059000E0218B43402119430A4BD150084A0849B6
:1005A000094BCB58802109011943074BD150074B08
:1005B000A822D200DA60BD4680BDC0460040064099
:1005C00000700440041000003810000000B0044027
:1005D00080B500AF034B1B685A1C024B1A60BD4626
:1005E00080BDC04604F0FF1F80B500AF024B1B6802
:0C05F000181CBD4680BDC04604F0FF1F73
:0400000300000410E5
:00000001FF
